{
  "contractName": "Crud",
  "abi": [
    {
      "constant": true,
      "inputs": [],
      "name": "nextId",
      "outputs": [
        {
          "internalType": "uint256",
          "name": "",
          "type": "uint256"
        }
      ],
      "payable": false,
      "stateMutability": "view",
      "type": "function"
    },
    {
      "constant": true,
      "inputs": [
        {
          "internalType": "uint256",
          "name": "",
          "type": "uint256"
        }
      ],
      "name": "users",
      "outputs": [
        {
          "internalType": "uint256",
          "name": "Id",
          "type": "uint256"
        },
        {
          "internalType": "string",
          "name": "name",
          "type": "string"
        }
      ],
      "payable": false,
      "stateMutability": "view",
      "type": "function"
    },
    {
      "constant": false,
      "inputs": [
        {
          "internalType": "string",
          "name": "name",
          "type": "string"
        }
      ],
      "name": "createUser",
      "outputs": [
        {
          "internalType": "string",
          "name": "",
          "type": "string"
        }
      ],
      "payable": false,
      "stateMutability": "nonpayable",
      "type": "function"
    },
    {
      "constant": true,
      "inputs": [
        {
          "internalType": "uint256",
          "name": "id",
          "type": "uint256"
        }
      ],
      "name": "getUser",
      "outputs": [
        {
          "internalType": "uint256",
          "name": "",
          "type": "uint256"
        },
        {
          "internalType": "string",
          "name": "",
          "type": "string"
        }
      ],
      "payable": false,
      "stateMutability": "view",
      "type": "function"
    },
    {
      "constant": true,
      "inputs": [],
      "name": "getUsers",
      "outputs": [
        {
          "components": [
            {
              "internalType": "uint256",
              "name": "Id",
              "type": "uint256"
            },
            {
              "internalType": "string",
              "name": "name",
              "type": "string"
            }
          ],
          "internalType": "struct Crud.User[]",
          "name": "",
          "type": "tuple[]"
        }
      ],
      "payable": false,
      "stateMutability": "view",
      "type": "function"
    },
    {
      "constant": false,
      "inputs": [
        {
          "internalType": "uint256",
          "name": "id",
          "type": "uint256"
        }
      ],
      "name": "deleteUser",
      "outputs": [
        {
          "internalType": "string",
          "name": "",
          "type": "string"
        }
      ],
      "payable": false,
      "stateMutability": "nonpayable",
      "type": "function"
    },
    {
      "constant": false,
      "inputs": [
        {
          "internalType": "uint256",
          "name": "id",
          "type": "uint256"
        },
        {
          "internalType": "string",
          "name": "name",
          "type": "string"
        }
      ],
      "name": "updateUser",
      "outputs": [
        {
          "internalType": "uint256",
          "name": "",
          "type": "uint256"
        },
        {
          "internalType": "string",
          "name": "",
          "type": "string"
        }
      ],
      "payable": false,
      "stateMutability": "nonpayable",
      "type": "function"
    }
  ],
  "bytecode": "0x6080604052600160005534801561001557600080fd5b50610ee4806100256000396000f3fe608060405234801561001057600080fd5b506004361061007c5760003560e01c8063507ffba51161005b578063507ffba51461010057806361b8ce8c14610130578063b0467deb1461014e578063d85340e71461017f5761007c565b8062ce8e3e14610081578063365b98b21461009f57806338f14845146100d0575b600080fd5b6100896101b0565b6040516100969190610c84565b60405180910390f35b6100b960048036036100b49190810190610a38565b6102bb565b6040516100c7929190610d03565b60405180910390f35b6100ea60048036036100e59190810190610a38565b610384565b6040516100f79190610ca6565b60405180910390f35b61011a600480360361011591908101906109f7565b610481565b6040516101279190610ca6565b60405180910390f35b61013861050a565b6040516101459190610ce8565b60405180910390f35b61016860048036036101639190810190610a38565b610510565b604051610176929190610d33565b60405180910390f35b61019960048036036101949190810190610a61565b61067e565b6040516101a7929190610d33565b60405180910390f35b60606001805480602002602001604051908101604052809291908181526020016000905b828210156102b2578382906000526020600020906002020160405180604001604052908160008201548152602001600182018054600181600116156101000203166002900480601f01602080910402602001604051908101604052809291908181526020018280546001816001161561010002031660029004801561029a5780601f1061026f5761010080835404028352916020019161029a565b820191906000526020600020905b81548152906001019060200180831161027d57829003601f168201915b505050505081525050815260200190600101906101d4565b50505050905090565b600181815481106102c857fe5b9060005260206000209060020201600091509050806000015490806001018054600181600116156101000203166002900480601f01602080910402602001604051908101604052809291908181526020018280546001816001161561010002031660029004801561037a5780601f1061034f5761010080835404028352916020019161037a565b820191906000526020600020905b81548152906001019060200180831161035d57829003601f168201915b5050505050905082565b606060008090505b60018054905081101561044057600181815481106103a657fe5b90600052602060002090600202016000015483141561043357600181815481106103cc57fe5b90600052602060002090600202016000808201600090556001820160006103f39190610821565b50506040518060400160405280601881526020017f456c207573756172696f2066756520656c696d696e61646f000000000000000081525091505061047c565b808060010191505061038c565b506040517f08c379a000000000000000000000000000000000000000000000000000000000815260040161047390610cc8565b60405180910390fd5b919050565b606060016040518060400160405280600054815260200184815250908060018154018082558091505090600182039060005260206000209060020201600090919290919091506000820151816000015560208201518160010190805190602001906104ed929190610869565b505050506000808154809291906001019190505550819050919050565b60005481565b6000606060008090505b60018054905081101561063d576001818154811061053457fe5b906000526020600020906002020160000154841415610630576001818154811061055a57fe5b9060005260206000209060020201600001546001828154811061057957fe5b9060005260206000209060020201600101808054600181600116156101000203166002900480601f01602080910402602001604051908101604052809291908181526020018280546001816001161561010002031660029004801561061f5780601f106105f45761010080835404028352916020019161061f565b820191906000526020600020905b81548152906001019060200180831161060257829003601f168201915b505050505090509250925050610679565b808060010191505061051a565b506040517f08c379a000000000000000000000000000000000000000000000000000000000815260040161067090610cc8565b60405180910390fd5b915091565b6000606060008090505b6001805490508110156107de57600181815481106106a257fe5b9060005260206000209060020201600001548514156107d15783600182815481106106c957fe5b906000526020600020906002020160010190805190602001906106ed9291906108e9565b50600181815481106106fb57fe5b9060005260206000209060020201600001546001828154811061071a57fe5b9060005260206000209060020201600101808054600181600116156101000203166002900480601f0160208091040260200160405190810160405280929190818152602001828054600181600116156101000203166002900480156107c05780601f10610795576101008083540402835291602001916107c0565b820191906000526020600020905b8154815290600101906020018083116107a357829003601f168201915b50505050509050925092505061081a565b8080600101915050610688565b506040517f08c379a000000000000000000000000000000000000000000000000000000000815260040161081190610cc8565b60405180910390fd5b9250929050565b50805460018160011615610100020316600290046000825580601f106108475750610866565b601f0160209004906000526020600020908101906108659190610969565b5b50565b828054600181600116156101000203166002900490600052602060002090601f016020900481019282601f106108aa57805160ff19168380011785556108d8565b828001600101855582156108d8579182015b828111156108d75782518255916020019190600101906108bc565b5b5090506108e59190610969565b5090565b828054600181600116156101000203166002900490600052602060002090601f016020900481019282601f1061092a57805160ff1916838001178555610958565b82800160010185558215610958579182015b8281111561095757825182559160200191906001019061093c565b5b5090506109659190610969565b5090565b61098b91905b8082111561098757600081600090555060010161096f565b5090565b90565b600082601f83011261099f57600080fd5b81356109b26109ad82610d90565b610d63565b915080825260208301602083018583830111156109ce57600080fd5b6109d9838284610e37565b50505092915050565b6000813590506109f181610e8a565b92915050565b600060208284031215610a0957600080fd5b600082013567ffffffffffffffff811115610a2357600080fd5b610a2f8482850161098e565b91505092915050565b600060208284031215610a4a57600080fd5b6000610a58848285016109e2565b91505092915050565b60008060408385031215610a7457600080fd5b6000610a82858286016109e2565b925050602083013567ffffffffffffffff811115610a9f57600080fd5b610aab8582860161098e565b9150509250929050565b6000610ac18383610c29565b905092915050565b6000610ad482610dcc565b610ade8185610dfa565b935083602082028501610af085610dbc565b8060005b85811015610b2c5784840389528151610b0d8582610ab5565b9450610b1883610ded565b925060208a01995050600181019050610af4565b50829750879550505050505092915050565b6000610b4982610de2565b610b538185610e1c565b9350610b63818560208601610e46565b610b6c81610e79565b840191505092915050565b6000610b8282610dd7565b610b8c8185610e0b565b9350610b9c818560208601610e46565b610ba581610e79565b840191505092915050565b6000610bbb82610dd7565b610bc58185610e1c565b9350610bd5818560208601610e46565b610bde81610e79565b840191505092915050565b6000610bf6601683610e1c565b91507f4e6f20736520656e636f6e74726f205573756172696f000000000000000000006000830152602082019050919050565b6000604083016000830151610c416000860182610c66565b5060208301518482036020860152610c598282610b77565b9150508091505092915050565b610c6f81610e2d565b82525050565b610c7e81610e2d565b82525050565b60006020820190508181036000830152610c9e8184610ac9565b905092915050565b60006020820190508181036000830152610cc08184610b3e565b905092915050565b60006020820190508181036000830152610ce181610be9565b9050919050565b6000602082019050610cfd6000830184610c75565b92915050565b6000604082019050610d186000830185610c75565b8181036020830152610d2a8184610bb0565b90509392505050565b6000604082019050610d486000830185610c75565b8181036020830152610d5a8184610b3e565b90509392505050565b6000604051905081810181811067ffffffffffffffff82111715610d8657600080fd5b8060405250919050565b600067ffffffffffffffff821115610da757600080fd5b601f19601f8301169050602081019050919050565b6000819050602082019050919050565b600081519050919050565b600081519050919050565b600081519050919050565b6000602082019050919050565b600082825260208201905092915050565b600082825260208201905092915050565b600082825260208201905092915050565b6000819050919050565b82818337600083830152505050565b60005b83811015610e64578082015181840152602081019050610e49565b83811115610e73576000848401525b50505050565b6000601f19601f8301169050919050565b610e9381610e2d565b8114610e9e57600080fd5b5056fea365627a7a72315820f09d7818365c4622552487310cd2a041bd82fa01bdda5c7b224518b499d8b69b6c6578706572696d656e74616cf564736f6c634300050c0040",
  "source": "\npragma solidity ^0.5.0;\npragma experimental ABIEncoderV2;\n\ncontract Crud {\n\n  struct User {\n    uint Id;\n    string name;\n  }\n  uint public nextId = 1;\n  User[] public users;\n\n  function createUser(string memory name) public returns(string memory){\n    users.push(User(nextId, name));\n    nextId ++;\n    return (name);\n  }\n\n  function getUser(uint id) public view returns(uint, string memory) {\n    for(uint i = 0; i < users.length; i++) {\n      if(id == users[i].Id){\n        return (users[i].Id, users[i].name);\n      }\n    }\n    revert(\"No se encontro Usuario\");\n  }\n\n  function getUsers() public view returns(User[] memory) {\n    return (users);\n  }\n\n  function deleteUser(uint id) public returns(string memory) {\n    for(uint i = 0; i < users.length; i++) {\n      if(id == users[i].Id){\n        delete(users[i]);\n        return (\"El usuario fue eliminado\");\n      }\n    }\n    revert(\"No se encontro Usuario\");\n  }\n\n  function updateUser(uint id, string memory name) public returns(uint, string memory) {\n    for(uint i = 0; i < users.length; i++) {\n      if(id == users[i].Id){\n        users[i].name = name;\n        return (users[i].Id, users[i].name);\n      }\n    }\n    revert(\"No se encontro Usuario\");\n  }\n\n}",
  "sourcePath": "/Users/federico/Desktop/bbvaHack/eattheblocks/crud/contracts/CRUD.sol",
  "compiler": {
    "name": "solc",
    "version": "0.5.12+commit.7709ece9.Emscripten.clang"
  },
  "schemaVersion": "3.0.19",
  "updatedAt": "2019-11-26T19:36:45.109Z",
  "networkType": "ethereum",
  "devdoc": {
    "methods": {}
  },
  "userdoc": {
    "methods": {}
  }
}